:10000000ECC400001BC5000019C5000017C50000A6
:1000100015C5000013C5000011C500000FC5000084
:100020000DC500000C94B3130C94B3130C94B313CC
:1000300005C5000003C5000001C50000FFC40000A5
:10004000FDC40000FBC40000F9C40000F7C40000B8
:10005000F5C40000F3C40000F1C400000C944F1C70
:10006000EDC400000C94B21F0C94E81FE7C400001C
:10007000E5C40000E3C40000E1C40000DFC40000E8
:10008000DDC40000DBC40000D9C40000D7C40000F8
:100090000C945D200C949320D1C40000CFC40000C8
:1000A000CDC40000CBC40000C9C40000C7C4000018
:1000B000C5C40000C3C40000C1C40000BFC4000028
:1000C000BDC40000BBC40000B9C40000B7C4000038
:1000D000B5C40000B3C40000B1C40000AFC4000048
:1000E000ADC40000731D761D651D691D6F1DAD1D1E
:1000F0007A1D7E1D841D881D8C1D921D961D9A1DC6
:10010000AD1DA01DA41DA81D53657269616C312031
:10011000636F6D6D616E647320696E697469616C83
:10012000697A65642E00617661696C61626C652034
:10013000746865726D6F73746174206964733A20BA
:100140000074687449732028312920276572726F02
:10015000722070726F63657373696E672074687460
:10016000497320636F6D6D616E6420202D20696E70
:1001700076616C6964206669727374206172677558
:100180006D656E742028746865726D6F7374617428
:1001900020696429206F722073746174652028209F
:1001A0004F4E207C204F464629270068746E4973C5
:1001B0002028312920276572726F722070726F6358
:1001C000657373696E672068656174696E67206323
:1001D0006F6D6D616E64202D206E6F20617267758A
:1001E0006D656E7420284F4E207C204F464629278F
:1001F00000617661696C61626C652074656D702068
:1002000073656E736F72206964733A2000746D7049
:100210003F2028312920276572726F722070726F1B
:1002200063657373696E6720746D703F20636F6DD3
:100230006D616E6420202D20696E76616C6964208A
:10024000666972737420617267756D656E742028BB
:1002500074656D702073656E736F722069642927F1
:100260000053657269616C206C6967687473206300
:100270006F6D6D616E647320696E697469616C691C
:100280007A65642E00617661696C61626C65206CD0
:1002900069676874206964733A20006572726F72CE
:1002A0002070726F63657373696E67206C6967682D
:1002B0007420636F6D6D616E64202D206E6F2066FB
:1002C0006972737420617267756D656E7420286C35
:1002D000696768742069642900617661696C61628C
:1002E0006C65206C69676874206964733A200065E6
:1002F00072726F722070726F63657373696E6720BC
:100300006C6967687420636F6D6D616E64202D2069
:10031000696E76616C6964206669727374206172BB
:1003200067756D656E7420286C69676874206964F0
:1003300029006572726F722070726F6365737369E2
:100340006E67206C6967687420636F6D6D616E64A1
:10035000202D206E6F207365636F6E64206172675D
:10036000756D656E7420284F4E207C204F464629BF
:100370000053657269616C20636F6D6D616E6473AB
:1003800020696E697469616C697A65642E005768CA
:1003900061743F0064656275673F00617661696CF6
:1003A00061626C65206964733A20006372743F2057
:1003B000276572726F722070726F63657373696EF6
:1003C00067206374743F20636F6D6D616E64202DD0
:1003D00020696E76616C696420666972737420614D
:1003E0007267756D656E7420287468656D706572CE
:1003F00061747572652073656E736F72206964290C
:100400002700617661696C61626C65206E616D6563
:10041000733A200063727420276572726F722070C5
:10042000726F63657373696E672063727420636FA4
:100430006D6D616E6420202D20696E76616C69643B
:1004400020666972737420617267756D656E7420C1
:10045000287468656D706572617475726520736566
:100460006E736F7220696429206F72207365636FE9
:100470006E64202874656D70657261747572652094
:10048000617320666C6F6174292700617661696C05
:1004900061626C65206964733A20007271743F2058
:1004A000276572726F722070726F63657373696E05
:1004B00067207271743F20636F6D6D616E64202DD3
:1004C00020696E76616C696420666972737420615C
:1004D0007267756D656E7420287468656D706572DD
:1004E00061747572652073656E736F72206964291B
:1004F0002700617661696C61626C65206E616D6573
:10050000733A200072717420276572726F722070C6
:10051000726F63657373696E672072717420636FA5
:100520006D6D616E6420202D20696E76616C69644A
:1005300020666972737420617267756D656E7420D0
:10054000287468656D706572617475726520736575
:100550006E736F7220696429206F72207365636FF8
:100560006E64202874656D706572617475726520A3
:10057000617320666C6F6174292700617661696C14
:1005800061626C652074656D702073656E736F7247
:10059000206964733A20006572726F722070726F06
:1005A00063657373696E672074656D7020636F6D2A
:1005B0006D616E64202D20696E76616C69642066C1
:1005C0006972737420617267756D656E742028742A
:1005D000656D702073656E736F72206964290061A8
:1005E0007661696C61626C652074656D70207365FD
:1005F0006E736F72206964733A20006572726F7255
:100600002070726F63657373696E672074656D70B7
:1006100020636F6D6D616E64202D20696E76616C54
:10062000696420666972737420617267756D656EA6
:1006300074202874656D702073656E736F72206905
:100640006429007468743F206279743700617661B0
:10065000696C61626C6520746865726D6F7374613A
:1006600074206964733A20007468743F20276572AF
:10067000726F722070726F63657373696E67207436
:1006800068743F20636F6D6D616E6420202D20695A
:100690006E76616C6964206669727374206172673A
:1006A000756D656E742028746865726D6F73746102
:1006B00074206964292700617661696C61626C65E8
:1006C00020746865726D6F73746174206964733A25
:1006D000200074687420276572726F722070726FC8
:1006E00063657373696E672074687420636F6D6DE2
:1006F000616E6420202D20696E76616C69642066CD
:100700006972737420617267756D656E74202874E8
:100710006865726D6F7374617420696429206F72EB
:100720002073746174652028204F4E207C204F4632
:100730004629270068656174696E672027657272B3
:100740006F722070726F63657373696E672068657E
:10075000617469676E20636F6D6D616E64202D201A
:100760006E6F20617267756D656E7420284F4E2024
:100770007C204F4646292700005EBCE2613FDD83B6
:10078000C29C7E20A3FD1F419DC3217FFCA2401E71
:100790005F01E3BD3E6082DC237D9FC1421CFEA061
:1007A000E1BF5D0380DE3C62BEE0025CDF81633D51
:1007B0007C22C09E1D43A1FF4618FAA427799BC541
:1007C00084DA3866E5BB5907DB856739BAE4065831
:1007D0001947A5FB7826C49A653BD987045AB8E621
:1007E000A7F91B45C6987A24F8A6441A99C7257B11
:1007F0003A6486D85B05E7B98CD2306EEDB3510F01
:100800004E10F2AC2F7193CD114FADF3702ECC92F0
:10081000D38D6F31B2EC0E50AFF1134DCE90722CE0
:100820006D33D18F0C52B0EE326C8ED0530DEFB1D0
:10083000F0AE4C1291CF2D73CA947628ABF51749C0
:100840000856B4EA6937D58B5709EBB536688AD4B0
:1008500095CB2977F4AA4816E9B7550B88D6346AA0
:100860002B7597C94A14F6A8742AC896154BA9F790
:10087000B6E80A54D7896B3500000A0B02090C0D43
:100880000E08070304010000000000000000000043
:100890000000000000000000000000000000000058
:1008A0000000000012111000000000000000000015
:1008B0000000000000000000000000000000010235
:1008C0001020200808102040102040800201020162
:1008D000080402010102040810204080804020101A
:1008E0000804020180040201804020100804020173
:1008F00008040201010204081020408001020408DB
:1009000010204080050505050705080808080202B3
:1009100002020A0A08080404040401010101010199
:1009200001010303030303030303040707070C0C7C
:100930000C0C0C0C0C0C0202020206060606060643
:1009400006060B0B0B0B0B0B0B0B00002000230000
:10095000260029002C002F003200000100000301B6
:100960000601090100002200250028002B002E00AE
:100970003100340002010000050108010B010000F4
:100980002100240027002A002D003000330001013F
:100990000000040107010A014E414E494E495459D5
:1009A000494E46CDCCCC3D0AD7233C17B7D138773A
:1009B000CC2B329595E6241FB14F0A000020410050
:1009C00000C84200401C4620BCBE4CCA1B0E5AAE9A
:1009D000C59D7400BC101A20C52011241FBECFEF86
:1009E000D1E2DEBFCDBF00E00CBF14E0A0E0B2E07A
:1009F000E0E9FFE400E00BBF02C007900D92AE3EBD
:100A0000B107D9F72BE0AEEEB4E001C01D92A63BD2
:100A1000B207E1F719E0CAEDD9E000E006C022977D
:100A20000109FE010BBF0E948D25C43DD10780E066
:100A30000807A9F70E9409210C94C627E1CACF93A1
:100A4000DF9380911408813019F4C9E8D3E002C023
:100A5000CCE8D3E060E973E08AE79AE00E9478216D
:100A6000BE018AE79AE00E9478218AE79AE0DF9146
:100A7000CF910C94802167E973E087E19BE00E94AD
:100A8000782187E19BE00C94802163E476E087E1A4
:100A90009BE00E94532187E19BE00C94802164E954
:100AA00073E087E19BE00E94532187E19BE00C9477
:100AB0008021CF92DF92EF92FF921F93CF93DF932B
:100AC0008BEE98E00E940215EC01009709F445C0F6
:100AD0000E94A825182F8E3008F03FC08BEE98E0BA
:100AE0000E9402150E94A52520E030E04AE754E468
:100AF0000E94EB240E9404246B017C0189E1189F71
:100B0000F0011124E55DFD4FD586C4866CE973E0E4
:100B10008AE79AE00E947821BE018AE79AE00E9463
:100B200078216EE974E08AE79AE00E947821B601A4
:100B3000882777FD8095982F0E94372420E030E0A9
:100B40004AE754E40E949C23AB01BC0122E030E060
:100B50008AE79AE00E94312324C064E075E08AE7C6
:100B60009AE00E9453218AE79AE00E94802162EF76
:100B700074E08AE79AE00E945321CBE2D2E04AE097
:100B800050E068818AE79AE00E94542263EA73E0A9
:100B90008AE79AE00E947821699683E0C938D807ED
:100BA00071F78AE79AE0DF91CF911F91FF90EF9064
:100BB000DF90CF900C9480216EE873E08AE79AE092
:100BC0000C948321CF93DF9385E198E00E945F1618
:100BD000EC0166EA73E08AE79AE00E9478212097A8
:100BE00089F0BE018AE79AE00E9478216EE974E0FC
:100BF0008AE79AE00E94782185E198E00E945F16DA
:100C0000EC01EDCF8AE79AE0DF91CF910C9480213F
:100C100060EB73E087E19BE00C949321CF93DF932B
:100C20008BEE98E00E940215EC01009771F066EBE4
:100C300073E087E19BE00E947821BE0187E19BE0A1
:100C40000E94782187E19BE008C064E377E08AE7AF
:100C50009AE00E9453218AE79AE0DF91CF910C94A9
:100C600080210F931F93CF93DF938BEE98E00E9428
:100C70000215EC01009749F10E94A8258E3028F555
:100C800099E1899FF0011124E55DFD4F878981304D
:100C900019F409E813E002C00CE813E06BEB73E011
:100CA0008AE79AE00E947821BE018AE79AE00E94D2
:100CB00078216EE974E08AE79AE00E947821B80111
:100CC0008AE79AE00E94782124C068E676E08AE705
:100CD0009AE00E9453218AE79AE00E9480216DE405
:100CE00076E08AE79AE00E945321CBE2D2E04AE024
:100CF00050E068818AE79AE00E94542263EA73E038
:100D00008AE79AE00E947821699683E0C938D8077B
:100D100071F78AE79AE0DF91CF911F910F910C94C0
:100D20008021CF92DF92EF92FF92CF93DF938BEEF1
:100D300098E00E940215009759F10E94A8258E3074
:100D400038F599E1899FF0011124E55DFD4FC684D6
:100D5000D784E088F188C08162EC73E08AE79AE08A
:100D60000E9478214AE050E06C2F8AE79AE00E94C6
:100D700054226EE974E08AE79AE00E94782122E02A
:100D800030E0B701A6018AE79AE00E94312324C02F
:100D90006BEF75E08AE79AE00E9453218AE79AE0B8
:100DA0000E9480216FED75E08AE79AE00E9453214E
:100DB000CBE2D2E04AE050E068818AE79AE00E9404
:100DC000542263EA73E08AE79AE00E9478216996E8
:100DD00083E0C938D80771F78AE79AE0DF91CF91AD
:100DE000FF90EF90DF90CF900C948021CF92DF9214
:100DF000EF92FF92CF93DF938BEE98E00E94021563
:100E0000EC010097A1F10E94A8258E3080F599E1B0
:100E1000899FF0011124E55DFD4F64857585882764
:100E200077FD8095982F0E94372420E030E04AE734
:100E300054E40E949C236B017C016CE973E08AE717
:100E40009AE00E947821BE018AE79AE00E94782108
:100E50006EE974E08AE79AE00E94782122E030E0AF
:100E6000B701A6018AE79AE00E94312324C06BE90A
:100E700074E08AE79AE00E9453218AE79AE00E9490
:100E800080216BE874E08AE79AE00E945321CBE26C
:100E9000D2E04AE050E068818AE79AE00E9454225A
:100EA00063EA73E08AE79AE00E947821699683E01A
:100EB000C938D80771F78AE79AE0DF91CF91FF90A0
:100EC000EF90DF90CF900C948021CF92DF92EF9241
:100ED000FF92CF93DF938BEE98E00E940215EC0116
:100EE0000097A1F10E94A8258E3080F599E1899F95
:100EF000F0011124E55DFD4F62857385882777FD3C
:100F00008095982F0E94372420E030E44CE156E48D
:100F10000E949C236B017C0169EC73E08AE79AE0F4
:100F20000E947821BE018AE79AE00E9478216EE94A
:100F300074E08AE79AE00E94782122E030E0B7016D
:100F4000A6018AE79AE00E94312324C06BEA73E08D
:100F50008AE79AE00E9453218AE79AE00E94802162
:100F60006BE973E08AE79AE00E945321CBE2D2E07A
:100F70004AE050E068818AE79AE00E94542263EADE
:100F800073E08AE79AE00E947821699683E0C93885
:100F9000D80771F78AE79AE0DF91CF91FF90EF9041
:100FA000DF90CF900C9480210F931F93CF93DF930A
:100FB0008BEE98E00E940215009779F10E94A82517
:100FC000EC018D3050F5CE019927FC01EE0FFF1F8B
:100FD000E80FF91FEC5FFD4F8181811103C009E823
:100FE00013E002C00CE813E060ED73E08AE79AE0DA
:100FF0000E9478214AE050E06C2F8AE79AE00E9434
:1010000054226EE974E08AE79AE00E947821B801E0
:101010008AE79AE00E94782123C06BE972E08AE7B0
:101020009AE00E9453218AE79AE00E94802165E8B5
:1010300072E08AE79AE00E945321C0E0D0E04AE0E3
:1010400050E0BE018AE79AE00E94412263EA73E021
:101050008AE79AE00E9478212196CD30D10579F770
:101060008AE79AE0DF91CF911F910F910C94802134
:101070000F931F93CF93DF93C4E0D2E061E08881A8
:101080000E94AE1D239682E0CB32D807B9F7E4EA7E
:10109000F5E004E110E020E030E04AEF50E060E0ED
:1010A00070E088EE93E0A0E0B0E00083118322833B
:1010B0003383448355836683778380879187A287B0
:1010C000B387B896C8E0E432FC0779F7DF91CF9197
:1010D0001F910F91089590E0FC01EE0FFF1FE80FA4
:1010E000F91FEC5FFD4F818186136283089590E0C4
:1010F000FC01EE0FFF1FE80FF91FEC5FFD4F818130
:1011000090E001968170992782830895CF93C0E083
:1011100061E08C2FE0DFCF5FCD30D1F7CF91089524
:10112000F5CFCF92DF92EF92FF920F931F93CF9361
:10113000DF93E12CF12CC1E0D0E098E2899F6001BF
:101140001124F601EB56FA4F6F018E010E2C02C0EE
:10115000000F111F0A94E2F7222717FD2095322F66
:10116000F6014081518162817381402351236223C2
:101170007323401751076207730711F48E2DB7DFF1
:10118000FFEFEF1AFF0A8DE0E816F104F1F6DF91A8
:10119000CF911F910F91FF90EF90DF90CF90089526
:1011A000CF92DF92EF92FF920F931F93CF93DF9333
:1011B000E12CF12CC1E0D0E098E2899F600111247C
:1011C000F601E756FA4F6F018E010E2C02C0000F98
:1011D000111F0A94E2F7222717FD2095322FF601FE
:1011E00040815181628173814023512362237323A3
:1011F000401751076207730711F48E2D78DFFFEF58
:10120000EF1AFF0A8DE0E816F104F1F6DF91CF91B5
:101210001F910F91FF90EF90DF90CF900895CF92A4
:10122000DF92EF92FF920F931F93CF93DF93E12C06
:10123000F12CC1E0D0E098E2899F60011124F60111
:10124000E356FA4F6F018E010E2C02C0000F111FE2
:101250000A94E2F7222717FD2095322FF6014081EC
:10126000518162817381402351236223732340178C
:1012700051076207730719F461E08E2D2CDFFFEF31
:10128000EF1AFF0A8DE0E816F104E9F6DF91CF913D
:101290001F910F91FF90EF90DF90CF90089526E07F
:1012A00040E855E260E070E08AE79AE00E94521F51
:1012B00067ED73E08AE79AE00E9478216DED73E0B4
:1012C0008AE79AE00E9478218AE79AE00C948021CC
:1012D00069E873E00E94CD2521E0892B09F020E028
:1012E000822F0895CF93DF9385E198E00E945F16E7
:1012F000EC01009779F0ECDF8093140860E973E06B
:101300008AE79AE00E947821BE018AE79AE00E946B
:10131000782106C06BEA71E08AE79AE00E945321C7
:101320008AE79AE0DF91CF910C94802149E555E05E
:1013300067EE73E08BEE98E00E940C1546EF56E0E6
:101340006BEE73E08BEE98E00E940C154EEF5BE0C5
:1013500060EF73E08BEE98E00E940C1545E657E0D5
:1013600064EF73E08BEE98E00E940C154EE056E0BF
:1013700069EF73E08BEE98E00E940C154FE155E0A9
:1013800067E973E08BEE98E00E940C154BE355E0A3
:101390006DEF73E08BEE98E00E940C1541E65FE084
:1013A00063E074E08BEE98E00E940C1541E356E098
:1013B00067E074E08BEE98E00E940C1545E455E080
:1013C0006CE074E08BEE98E00E940C1541E956E069
:1013D00062E174E08BEE98E00E940C1540EF5CE057
:1013E00067E174E08BEE98E00E940C154FE455E045
:1013F0006DE174E08BEE98E00E940C156CED75E0E9
:101400008BEE98E00E943A1561E773E08AE79AE074
:101410000E9453218AE79AE00C94802169E873E0E6
:101420000E94CD2521E0892B09F420E0822F089528
:10143000CF93DF938BEE98E00E9402150097C1F0E6
:101440000E94A825C82F8D3098F48BEE98E00E945A
:101450000215009731F0E2DF682F8C2FDF91CF91DA
:101460003ACE62E373E08AE79AE00E94532123C0F8
:101470006FEE72E08AE79AE00E9453218AE79AE0D1
:101480000E94802169ED72E08AE79AE00E94532170
:10149000C0E0D0E04AE050E0BE018AE79AE00E9456
:1014A000412263EA73E08AE79AE00E94782121965C
:1014B000CD30D10579F78AE79AE0DF91CF910C948E
:1014C00080211F93CF93DF93182F6F5F7F4F64307E
:1014D000710540F4FB01EE0FFF1FE054FB4FC0818C
:1014E000D18102C0C4E2D4E061E374E08AE79AE00B
:1014F0000E9478214AE050E0612F8AE79AE00E943A
:1015000054226EE974E08AE79AE00E947821BE01D5
:101510008AE79AE00E9478218AE79AE0DF91CF91EA
:101520001F910C9480211F93CF93DF93C1EAD5E0E4
:1015300010E0CE010E947C142881398121153105EB
:1015400011F03A8F298F2130310541F461E070E0CC
:10155000812FB7DF812FE5DD1A8E198E298D3A8D07
:101560002230310541F462E070E0812FAADF812F43
:1015700017DE1A8E198E298D3A8D2F3F3F4F41F479
:101580006FEF7FEF812F9DDF812F49DE1A8E198E3D
:101590001F5FA896103169F6DF91CF911F910895D2
:1015A0001F93CF93DF93182F611103C0C9E8D3E0D5
:1015B00002C0CCE8D3E060ED73E08AE79AE00E94D5
:1015C00078214AE050E0612F8AE79AE00E94542295
:1015D0006EE974E08AE79AE00E947821BE018AE70A
:1015E0009AE00E9478218AE79AE0DF91CF911F91DB
:1015F0000C948021FF920F931F93CF93DF93C6E04B
:10160000D2E005E012E0F12C6881F80180816817D2
:1016100051F0FE01329780810E94E71D6881F80138
:1016200060838F2DBDDFF39423960D5F1F4FFDE088
:10163000FF12EACFDF91CF911F910F91FF90089594
:1016400048E15AE068E374E08BEE98E00E940C15E4
:1016500040E958E06CE374E08BEE98E00E940C15D2
:1016600044ED57E061E474E08BEE98E00E940C15C5
:1016700061E672E08AE79AE00E9453218AE79AE0E5
:101680000C94802126E040E855E260E070E087E1BC
:101690009BE00E94521F66E474E08AE79AE00E9491
:1016A00078218AE79AE00C94802149E45EE066E5BF
:1016B00074E085E198E00E94691642E759E06CE524
:1016C00074E085E198E00E9469164CE550E162E61D
:1016D00074E085E198E00E94691642EE55E068E604
:1016E00074E085E198E00E94691668E076E085E1A3
:1016F00098E00E94971668E071E08AE79AE00E94FD
:1017000053218AE79AE00C9480211F93CF93DF93B3
:10171000CFEED4E0CE010E94E71A60E0CE010E9435
:10172000481B639685E0CE34D807A1F7C3E4D2E026
:1017300013E1BE0167517109FE013F978081189F37
:10174000C00111244BE081519B4F0E94741A1882F2
:10175000699683E0C635D80761F710925603109258
:101760006F0310928803DF91CF911F910895CF925C
:10177000DF92EF92FF92CF93DF93C82F6A017B0134
:101780002DEC3CEC4CE450E4C701B6010E94E72488
:1017900018169CF02DEC3CEC4CE450ECC701B60163
:1017A0000E94982387FF11C06DECC62E6CECD62EDC
:1017B0006CE4E62E60ECF62E08C07DECC72E7CECC7
:1017C000D72E7CE4E72E70E4F72E89E1C89FE00174
:1017D0001124C55DDD4F20E030E44CE156E4C70143
:1017E000B6010E94EB240E9404247B876A87DF9164
:1017F000CF91FF90EF90DF90CF900895CF92DF923E
:10180000EF92FF921F93CF93DF938BEE98E00E94AD
:101810000215EC01009709F43FC00E94A825182F7B
:101820008E30D0F58BEE98E00E9402150E94A5251F
:10183000AB01BC01812F9BDF89E1189FF0011124CE
:10184000E55DFD4F62857385882777FD8095982F2C
:101850000E94372420E030E44CE156E40E949C23AF
:101860006B017C0169EC73E08AE79AE00E947821C1
:10187000BE018AE79AE00E9478216EE974E08AE767
:101880009AE00E94782122E030E0B701A6018AE7C1
:101890009AE00E94312324C064E174E08AE79AE070
:1018A0000E9453218AE79AE00E94802162E074E05E
:1018B0008AE79AE00E945321CBE2D2E04AE050E06E
:1018C00068818AE79AE00E94542263EA73E08AE71B
:1018D0009AE00E947821699683E0C938D80771F7A9
:1018E0008AE79AE0DF91CF911F91FF90EF90DF9010
:1018F000CF900C948021CF92DF92EF92FF92CF9302
:10190000C82F89E1C89FF0011124E55DFD4FC68411
:10191000D784E088F18862EC73E08AE79AE00E945D
:1019200078214AE050E06C2F8AE79AE00E94542226
:101930006EE974E08AE79AE00E94782122E030E0C4
:10194000B701A6018AE79AE00E9431238AE79AE06C
:10195000CF91FF90EF90DF90CF900C948021CF93A8
:10196000DF93C82FD0E029E1829FF0011124E55DCB
:10197000FD4F8289811131C081E0828B8185853064
:10198000A0F060E774E087E19BE00E9478214AE0E4
:1019900050E0BE016B50710987E19BE00E9441223B
:1019A00087E19BE00E94802108C023E1829FC00163
:1019B000112481519B4F0E94C41B0E94991C29E154
:1019C0002C9FF0012D9FF00D1124E55DFD4F638BE1
:1019D000748B858B968B81E0808FDF91CF910895FA
:1019E000CF93DF938BEE98E00E940215009739F0B9
:1019F0000E94A8258E3018F4DF91CF91B0CF67E90F
:101A000075E08AE79AE00E9453218AE79AE00E94F3
:101A100080216BE775E08AE79AE00E945321CBE2D0
:101A2000D2E04AE050E068818AE79AE00E945422BE
:101A300063EA73E08AE79AE00E947821699683E07E
:101A4000C938D80771F78AE79AE0DF91CF910C94F3
:101A500080218F929F92AF92BF92CF92DF92EF92AE
:101A6000FF920F931F93CF93DF938091EE04811128
:101A700061C00E94991C0091000210910102209106
:101A8000020230910302601B710B820B930B6033D7
:101A900075478105910508F44DC081E08093EE04FF
:101AA000CDE3D2E011E018830E94991C69837A8308
:101AB0008B839C83699683E0C035D807A1F7CFEE6E
:101AC000D4E0CE010E94C41B6396E5E0CE34DE076D
:101AD000C1F7C0E5D3E000E010E0FF24F394888173
:101AE000811118C060E774E087E19BE00E947821D3
:101AF0004AE050E0B80187E19BE00E94412287E183
:101B00009BE00E948021F8820E94991C69837A835D
:101B10008B839C830F5F1F4F699603301105F9F685
:101B20000E94991C6093000270930102809302024C
:101B300090930302EDE3EE2EE2E0FE2E03E412E0CA
:101B4000C4E3D2E0D12CF3E1CF2EF70180818823CA
:101B500009F444C00E94991C8A849B84AC84BD848F
:101B6000681979098A099B096C3B724081059105C6
:101B7000A8F18881C89EC0011124BE016850710976
:101B800081519B4F0E944D1C4B015C0169817A8100
:101B9000882777FD8095982F0E94372420E030E435
:101BA0004CE156E40E949C239B01AC01C501B401A9
:101BB0000E9434236D837E838F839887F701108280
:101BC0000E94991C6A877B878C879D87F80180819A
:101BD000882321F08D2D8FDEF8011082F9E1EF0EC0
:101BE000F11CD394075E1F4F69962BE0D212ADCF44
:101BF0008091EE048823F9F00E94991C0091000264
:101C0000109101022091020230910302601B710BBE
:101C1000820B930B6C3B72408105910560F0109232
:101C2000EE040E94991C609300027093010280935D
:101C3000020290930302DF91CF911F910F91FF90C9
:101C4000EF90DF90CF90BF90AF909F908F900895CE
:101C5000CF93DF93EC0166E774E00E94CD25892BDA
:101C600081F060E874E0CE010E94CD25892B59F007
:101C700066E874E0CE010E94CD25892B31F48DE019
:101C800005C08CE003C08BE001C08FEFDF91CF91E6
:101C90000895CF92DF92EF92FF92CF93DF9385E189
:101CA00098E00E945F160097D1F1D2DFC82F8E30E6
:101CB000B0F585E198E00E945F16D0E00E94A5256E
:101CC0006B017C0189E18C9FF0018D9FF00D112447
:101CD000E55DFD4FC686D786E08AF18A808D882330
:101CE00009F44BC0C08162EC73E08AE79AE00E947D
:101CF00078214AE050E06C2F8AE79AE00E94542253
:101D00006EE974E08AE79AE00E94782122E030E0F0
:101D1000B701A6018AE79AE00E94312324C06DE052
:101D200072E08AE79AE00E9453218AE79AE00E94D3
:101D3000802161EF71E08AE79AE00E945321CEE3AF
:101D4000D3E04AE050E068818AE79AE00E9454229A
:101D500063EA73E08AE79AE00E947821699683E05B
:101D6000C938D80771F78AE79AE0DF91CF91FF90E1
:101D7000EF90DF90CF900C948021DF91CF91FF9076
:101D8000EF90DF90CF900895FF920F931F93CF9322
:101D9000DF93CBE2D2E00C851D8501388FEF180769
:101DA00069F1F8806CE973E08AE79AE00E94782193
:101DB0004AE050E06F2D8AE79AE00E9454226EE9D3
:101DC00074E08AE79AE00E947821B801882777FDBD
:101DD0008095982F0E94372420E030E04AE754E4B1
:101DE0000E949C23AB01BC0122E030E08AE79AE02C
:101DF0000E9431238AE79AE00E948021699683E05D
:101E0000C938D80741F6DF91CF911F910F91FF900C
:101E1000089560EA7FE080E090E00E94C81C3FDA0D
:101E200031DC26D972DCB0DF0BDC80DA3ECC0F93DC
:101E30001F93CF93DF93082F162F89E1089FF0019E
:101E40001124E55DFD4F678B613019F4C9E8D3E0DB
:101E500002C0CCE8D3E06BEB73E08AE79AE00E9423
:101E600078214AE050E0602F8AE79AE00E945422ED
:101E70006EE974E08AE79AE00E947821BE018AE761
:101E80009AE00E9478218AE79AE00E94802111302E
:101E900019F4C9E8D3E002C0CCE8D3E06CE874E000
:101EA00087E19BE00E947821BE0187E19BE00E94D0
:101EB000782187E19BE0DF91CF911F910F910C94E6
:101EC00080211F93CF93DF938BEE98E09BD50097F3
:101ED000F1F00E94A825182F8E30C8F48BEE98E000
:101EE00091D5EC011C3059F466E974E087E19BE080
:101EF0000E947821BE0187E19BE00E947821CE01FB
:101F0000E7D9682F812FDF91CF911F9190CF62ED9C
:101F100076E08AE79AE00E9453218AE79AE00E94DD
:101F2000802167EB76E08AE79AE00E945321CBE2BA
:101F3000D2E04AE050E068818AE79AE00E945422A9
:101F400063EA73E08AE79AE00E947821699683E069
:101F5000C938D80771F78AE79AE0DF91CF911F91CE
:101F60000C9480215F926F927F928F929F92AF929A
:101F7000BF92CF92DF92EF92FF920F931F93CF9376
:101F8000DF93C7E3D2E002E412E0712C512C612C04
:101F9000A880B98081E8A8168FEFB80609F45DC063
:101FA000CA80DB80EC80FD8020E030E040E051E43E
:101FB000C701B6010E94E72418160CF04EC020E0BD
:101FC00030E040E052E4C701B6010E94982387FF49
:101FD00044C0B501882777FD8095982F0E9437244B
:101FE00020E030E04AE754E40E949C234B015C016E
:101FF0002DEC3CEC4CEC5DE30E9433239B01AC01E7
:10200000C701B6010E949823881F8827881F682A65
:102010002DEC3CEC4CEC5DE3C501B4010E94342393
:102020009B01AC01BB24B394C701B6010E94E72415
:1020300018160CF0B12C5B28F8018081811104C0C6
:10204000662059F061E007C0813039F4552029F04D
:10205000611003C060E0872DEADE73946996075E25
:102060001F4FFEE07F1294CFDF91CF911F910F9110
:10207000FF90EF90DF90CF90BF90AF909F908F90A8
:102080007F906F905F900895CF93DF93EC0160EAAB
:1020900074E00E94CD25892B49F065EA74E0CE01F9
:1020A0000E94CD25892B21F482E003C08CE001C081
:1020B0008FEFDF91CF910895FF920F931F93CF93EE
:1020C000DF9385E198E0FBD5EC01009741F1DCDF7F
:1020D000F82E8DE08F1518F185E198E0F0D58C0190
:1020E000F7D899E1F99EF0011124E55DFD4F878B4A
:1020F0006BEB73E08AE79AE00E947821BE018AE7E1
:102100009AE00E9478216EE974E08AE79AE00E94E2
:102110007821B8018AE79AE00E94782124C061E41E
:1021200071E08AE79AE00E9453218AE79AE00E94D0
:10213000802166E271E08AE79AE00E945321CBE2B7
:10214000D2E04AE050E068818AE79AE00E94542297
:1021500063EA73E08AE79AE00E947821699683E057
:10216000C938D80771F78AE79AE0DF91CF911F91BC
:102170000F91FF900C9480214F925F926F927F920B
:102180008F929F92AF92BF92CF92DF92EF92FF9287
:10219000CF938BEE98E027D485E198E081D5E4E9F0
:1021A000F5E0C8E2DF018C2F1D928A95E9F786E100
:1021B0008083412CA0E15A2E612C712C4092950510
:1021C000509296056092970570929805B0E28B2E1A
:1021D000912CA12CB12C8092990590929A05A092F5
:1021E0009B05B0929C05CC24CA948FE1D82EE12C9B
:1021F000F12CC0929D05D0929E05E0929F05F09231
:10220000A00521E040E066E181EA95E02AD3ECEB0D
:10221000F5E0DF018C2F1D928A95E9F788E1808334
:1022200080E490E0A0E0B0E08093BD059093BE050F
:10223000A093BF05B093C0058092C1059092C205DE
:10224000A092C305B092C405C092C505D092C60540
:10225000E092C705F092C80521E040E068E189EC12
:1022600095E0FFD2E4EEF5E0DF018C2F1D928A9518
:10227000E9F78AE1808380E890E0A0E0B0E0809315
:10228000E5059093E605A093E705B093E805C092B5
:10229000ED05D092EE05E092EF05F092F00521E019
:1022A00040E06AE181EF95E0DCD2ECE0F6E0DF01AE
:1022B0008C2F1D928A95E9F78CE1808380920D0620
:1022C00090920E06A0920F06B0921006C0921506CC
:1022D000D0921606E0921706F092180621E040E030
:1022E0006CE189E196E0BDD2E4E3F6E0DF018C2FFA
:1022F0001D928A95E9F78EE1808380E890E0A0E066
:10230000B0E08093350690933606A0933706B093DD
:102310003806812C912C5401939480923906909226
:102320003A06A0923B06B0923C06C0923D06D0927F
:102330003E06E0923F06F092400621E040E06EE16A
:1023400081E496E08ED2ECE5F6E0DF018C2F1D9261
:102350008A95E9F780E2808380925D0690925E061E
:10236000A0925F06B0926006C0926506D0926606A3
:10237000E0926706F092680621E040E060E289E6BC
:1023800096E06FD2E4E8F6E0DF018C2F1D928A958B
:10239000E9F782E2808381E090E0A0E0B0E0809302
:1023A000850690938606A0938706B0938806C09210
:1023B0008D06D0928E06E0928F06F092900621E074
:1023C00040E062E281E996E04CD2ECEAF6E0DF011F
:1023D0008C2F1D928A95E9F784E280834092AD06A6
:1023E0005092AE066092AF067092B00682E090E026
:1023F000A0E0B0E08093B1069093B206A093B3063C
:10240000B093B406C092B506D092B606E092B70675
:10241000F092B80621E040E064E289EB96E021D238
:10242000E4EDF6E0DF018C2F1D928A95E9F786E254
:10243000808380E098E0A0E0B0E08093D5069093A0
:10244000D606A093D706B093D806C092DD06D092E8
:10245000DE06E092DF06F092E00621E040E066E270
:1024600081EE96E0FED1ECEFF6E0DF018C2F1D92BD
:102470008A95E9F7C08380E190E0A0E0B0E0809326
:10248000FD069093FE06A093FF06B0930007C0924E
:102490000507D0920607E0920707F092080721E0AF
:1024A00040E068E289E097E0DCD1E4E2F7E0DF01B8
:1024B0008C2F1D928A95E9F78AE2808380E092E072
:1024C000A0E0B0E08093250790932607A09327070C
:1024D000B0932807412C24E0522E612C712C40929D
:1024E000290750922A0760922B0770922C07C092FE
:1024F0002D07D0922E07E0922F07F092300721E0AF
:1025000040E06AE281E397E0ACD1ECE4F7E0DF0180
:102510008C2F1D928A95E9F78CE2808388E090E009
:10252000A0E0B0E080934D0790934E07A0934F0733
:10253000B09350078092510790925207A092530790
:10254000B0925407C0925507D0925607E0925707B1
:10255000F092580721E040E06CE289E597E081D1F4
:10256000E4E7F7E0DF018C2F1D928A95E9F78EE210
:10257000808384E090E0A0E0B0E0809375079093C2
:102580007607A0937707B0937807809279079092A7
:102590007A07A0927B07B0927C07C0927D07D09209
:1025A0007E07E0927F07F092800721E040E06EE234
:1025B00081E897E056D1ECE9F7E0DF018C2F1D921E
:1025C0008A95E9F780E3808380929D0790929E0729
:1025D000A0929F07B092A00780E490E0A0E0B0E056
:1025E0008093A1079093A207A093A307B093A40799
:1025F000C092A507D092A607E092A707F092A8077D
:1026000021E040E060E389EA97E02BD1E4ECF7E0D9
:10261000DF018C2F1D928A95E9F782E3808380E1A8
:1026200090E0A0E0B0E08093C5079093C607A09328
:10263000C707B093C8074092C9075092CA07609273
:10264000CB077092CC07C092CD07D092CE07E09214
:10265000CF07F092D00721E040E062E381ED97E000
:1026600000D1ECEEF7E0DF011D92CA95E9F784E3B3
:1026700080834092ED075092EE076092EF077092D0
:10268000F00780E092E0A0E0B0E08093F107909343
:10269000F207A093F307B093F407C092F507D09226
:1026A000F607E092F707F092F80721E040E064E3D4
:1026B00089EF97E0D6D06CE08EE495E065D56BE0CD
:1026C0008CE595E061D56AE08AE695E05DD569E044
:1026D00088E795E059D568E086E895E055D56EE441
:1026E00075E08FEE94E00FD66CE575E082E095E042
:1026F0000AD66AE675E085E195E005D668E775E0FB
:1027000088E295E000D666E875E08BE395E0CF912E
:10271000FF90EF90DF90CF90BF90AF909F908F9001
:102720007F906F905F904F90EEC58AE79AE00E948D
:10273000441E181619061CF48BEE98E0A1C10895EA
:1027400087E19BE00E94441E181619061CF485E1DF
:1027500098E0F3C20895E9DFF3DF0E94930A0E9434
:10276000FA0A77D9FFCB1F920F920FB60F9211245E
:102770000BB60F922F933F934F935F936F937F937B
:102780008F939F93AF93BF93EF93FF93E0916F0A63
:10279000F091700A309709F451C0868DA685B785EF
:1027A000958581FF04C08C91892329F447C08C91C1
:1027B000892309F043C0A389B4899C9185898095B8
:1027C00089238C93868997890197F1F7208D318D24
:1027D000A685B785758558E040E0C9010197F1F7F6
:1027E000842F90E095958795482F6C91672309F089
:1027F0004068515091F7868D81FD409580912E0A59
:1028000090E001968F73992720912D0A281749F09F
:10281000A0912E0AB0E0A15DB54F4C9380932E0A93
:1028200003C0868D8160868F828D938D0197F1F72D
:10283000A389B4898C919589892B8C93FF91EF9111
:10284000BF91AF919F918F917F916F915F914F91C8
:102850003F912F910F900BBE0F900FBE0F901F90C6
:1028600018950F931F93CF93DF931F92CDB7DEB7C9
:102870008C01862FF8016787408B91E09427918B1C
:10288000928B148A138A118210821282158A168AF8
:10289000178A108E44E150E060E070E04383548377
:1028A000658376834AEF50E060E070E047835087AD
:1028B0006187728748EE53E060E070E04387548799
:1028C0006587768760E029830E94AE1DF8018089C4
:1028D000298181110BC0222349F061E087850F9087
:1028E000DF91CF911F910F910C94E71D0F90DF9115
:1028F000CF911F910F910895CF92DF92EF92FF92A7
:10290000CF93DF93EC010E94991C6B017C018F85B2
:102910000E941C1E21E0892B09F420E0298B888964
:10292000811103C081E08227898B29898A89281730
:1029300021F0CD8ADE8AEF8AF88E8D899E89AF8953
:10294000B88DB701A601481B590B6A0B7B0B8B8115
:102950009C81AD81BE8184179507A607B7075CF4FB
:102960008A81281741F02A83222329F08B899C89A8
:1029700001969C8B8B8B8A8181110CC08F819885ED
:10298000A985BA8584179507A607B707ACF48B8984
:102990009C890EC08B859C85AD85BE858417950767
:1029A000A607B7074CF48B899C899195819591096D
:1029B000998388831C8A1B8A2A8BDF91CF91FF9091
:1029C000EF90DF90CF90089521E030E0FC01E20F1E
:1029D000F31F10822F5F3F4F21313105B9F7FC0102
:1029E000128A118A0895FC01E25CFE4F1182108266
:1029F00020E230E0FC01348B238B2DE0258B138EFD
:102A0000128EE2CFAC01485E5F4FBC016D5E7F4F1E
:102A100080E090E00C94F325FF920F931F93CF93E7
:102A2000DF93EC018A012A8D3B8D20313105E4F4DE
:102A300082E1F82EF29EC001F39E900D11244C9677
:102A400040E150E08C0F9D1F0E94E4258A8D9B8DF4
:102A5000F89EF001F99EF00D1124EC0FFD1F15A753
:102A600004A701969B8F8A8FDF91CF911F910F91C1
:102A7000FF900895845C9E4FFC01718360830895EC
:102A80002F923F924F925F926F927F928F929F927E
:102A9000AF92BF92CF92DF92EF92FF920F931F936C
:102AA000CF93DF93CDB7DEB728970FB6F894DEBF8C
:102AB0000FBECDBF98878F837C0122ECE21A2EEFE8
:102AC000F20A5C0180ECA81A8EEFB80AAF81B885D3
:102AD0005896BA83A983EF81F8857396FC83EB83BC
:102AE0008F819885845C9E4F9E838D834F80588410
:102AF000BFEF4B1A5B0A2F803884ECE12E0E311C9D
:102B0000D7018D919C91892B31F0F70180819181C2
:102B1000019749F09DC08AE79AE00E94441E18166A
:102B200019067CF0F2CFD5018D919C91DC01ED91DD
:102B3000FC910480F581E02D1995181619060CF00A
:102B400087C0F70180819181892B41F48AE79AE05F
:102B50000E945D1EAF81B8858C930DC0F501808108
:102B60009181DC01ED91FC910680F781E02D1995B2
:102B7000EF81F8858083AF81B8859C9155968C91C3
:102B8000559798133FC052961C921E9251974981B7
:102B90005A816B817C81C2010E94F3256C01EF8117
:102BA000F885978B868B009709F452C0828C938CA2
:102BB000310100E010E008151905E4F440E150E0AF
:102BC000B301C6010E94D625F2E16F0E711C892B5C
:102BD00071F422E1209FF001219FF00D11248F81DB
:102BE0009885E80FF91F04A4F5A5E02D07C00F5F35
:102BF0001F4FE1CFAD81BE81ED91FC9119958F8181
:102C00009885E2DEAF81B8851C91812F992787FDD9
:102C100090950E94C725892B09F472CFEF81F88522
:102C200021893289C9010196928B818BE20FF31FB2
:102C30001183EF81F885E80FF91F118240970CF49A
:102C40005ACFAF81B88552961C921E9251974ECFA3
:102C500028960FB6F894DEBF0FBECDBFDF91CF919F
:102C60001F910F91FF90EF90DF90CF90BF90AF90AA
:102C70009F908F907F906F905F904F903F902F909C
:102C8000089521E030E0FC01E20FF31F10822F5F76
:102C90003F4F21313105B9F7FC01128A118A08959D
:102CA000FC01EE52FF4F1182108220E230E0FC0165
:102CB000348B238B2DE0258B138E128EE2CFAC014B
:102CC000485E5F4FBC016D5E7F4F80E090E00C94EA
:102CD000F325FF920F931F93CF93DF93EC018A01AB
:102CE0002A8D3B8D2A303105E4F482E1F82EF29EE4
:102CF000C001F39E900D11244C9640E150E08C0FE2
:102D00009D1F0E94E4258A8D9B8DF89EF001F99EFF
:102D1000F00D1124EC0FFD1F15A704A701969B8F42
:102D20008A8FDF91CF911F910F91FF90089580536B
:102D30009F4FFC017183608308952F923F924F92C1
:102D40005F926F927F928F929F92AF92BF92CF923B
:102D5000DF92EF92FF920F931F93CF93DF93CDB744
:102D6000DEB728970FB6F894DEBF0FBECDBF9887A9
:102D70008F837C0122EDE20EF11C5C0184EDA80E34
:102D8000B11CAF81B8855896BA83A983EF81F885C5
:102D90007396FC83EB838F81988580539F4F9E832E
:102DA0008D834F805884BFEF4B1A5B0A2F80388485
:102DB000ECE12E0E311CD7018D919C91892B31F0C5
:102DC000F70180819181019741F09BC087E19BE0F1
:102DD0005BD7181619067CF0F3CFD5018D919C9125
:102DE000DC01ED91FC910480F581E02D1995181618
:102DF00019060CF086C0F70180819181892B39F486
:102E000087E19BE05AD7AF81B8858C930DC0F5015F
:102E100080819181DC01ED91FC910680F781E02DAC
:102E20001995EF81F8858083AF81B8859C9155967F
:102E30008C91559798133FC052961C921E925197B1
:102E400049815A816B817C81C2010E94F3256C010A
:102E5000EF81F885978B868B009709F452C0828C9E
:102E6000938C310100E010E008151905E4F440E10D
:102E700050E0B301C6010E94D625F2E16F0E711C2D
:102E8000892B71F422E1209FF001219FF00D112484
:102E90008F819885E80FF91F04A4F5A5E02D07C0E0
:102EA0000F5F1F4FE1CFAD81BE81ED91FC91199570
:102EB0008F819885E6DEAF81B8851C91812F992797
:102EC00087FD90950E94C725892B09F474CFEF8167
:102ED000F88521893289C9010196928B818BE20F95
:102EE000F31F1183EF81F885E80FF91F11824097D6
:102EF0000CF45CCFAF81B88552961C921E9251970C
:102F000050CF28960FB6F894DEBF0FBECDBFDF912D
:102F1000CF911F910F91FF90EF90DF90CF90BF90D6
:102F2000AF909F908F907F906F905F904F903F9069
:102F30002F900895FF920F931F93CF93DF93FC017F
:102F40000081C181D281F8948981F02EF0948F2183
:102F5000898378941DE7115009F182E090E03DD516
:102F600088818023C1F3F8948A818F218A838981A3
:102F7000802B8983789480EE91E02FD5F894898115
:102F80008F21898386E490E028D58881802311E011
:102F900009F010E078948AE991E01FD5812FDF9144
:102FA000CF911F910F91FF9008951F93CF93DF93BF
:102FB000FC011081C181D281912F909560FF11C0D9
:102FC000F8948A8189238A838981812B89838AE085
:102FD00090E003D58A81812B8A83789487E390E0FF
:102FE00010C0F8948A8189238A838981812B8983FF
:102FF00081E490E0F2D48A81812B8A83789485E001
:1030000090E0DF91CF911F91E8C40F931F93CF936E
:10301000DF93FC011081C181D281F8948981812BD9
:1030200089838A81012F009580238A8383E090E041
:10303000D4D48981802389838AE090E0CED4C8816A
:10304000789485E390E0C9D41C2381E009F480E002
:10305000DF91CF911F910F910895CF92DF92EF9260
:10306000FF920F931F93CF93DF931F92CDB7DEB7DD
:103070006C01E62E08E010E0FF24F39461E09F2D40
:103080009E2109F460E0C60149838FDFFF0C0150E7
:10309000110949810115110589F7411115C0F894ED
:1030A000D6011196ED91FC91129791818C918095AA
:1030B000892381831196ED91FC91129792818C91D5
:1030C00080958923828378940F90DF91CF911F910F
:1030D0000F91FF90EF90DF90CF900895EF92FF92C5
:1030E0000F931F93CF93DF938C01C8E0D0E0F12CB6
:1030F000EE24E394C80189DF8111FE28EE0C2197AC
:10310000C9F78F2DDF91CF911F910F91FF90EF9015
:103110000895CF92DF92FF920F931F93CF93DF9387
:103120001F92CDB7DEB78C01F62E40E065E57983BE
:1031300094DFCF2C7981D72E88E0F82EF6016191AB
:103140006F0140E0C80189DFFA94C1F70F90DF9169
:10315000CF911F910F91FF90DF90CF90089540E0A5
:103160006CEC7BCFFC0113861586148627E030E0DB
:10317000DF01A20FB31F13961C922115310519F020
:1031800021503109F5CF08951F93CF93DF93EC01C0
:10319000162F60E0812FE2D4612F70E0FB01E25432
:1031A000F74FE491E883FB01EC5FF64FE491F0E028
:1031B000EE0FFF1FE65BF64F859194919A8389830A
:1031C000CE01DF91CF911F91CDCFAF92BF92CF9221
:1031D000DF92EF92FF920F931F93CF93DF931F9293
:1031E000CDB7DEB75C01D62EE72EFC0185858111B7
:1031F00058C0C5019FDE811105C0F50113861586F3
:10320000148668C040E060EFC50127DF01E0F12CC3
:10321000C12C11E0C501F9DE682FC5016983F5DE17
:103220006981613019F48130B9F432C02F2D30E05A
:1032300068131BC0F5018385181730F4E20FF31FE4
:103240008381802349F402C0181731F060E01930FF
:1032500058F4F501148708C0F501EF0DF11D8381C5
:10326000802B838361E009C0C12EF501E20FF31FBB
:103270008381902F909589238383C50196DE1F5FFC
:10328000000F11F4F39401E0F7E0FF1508F0C2CF4E
:10329000113438F0F501C386C11009C081E085877B
:1032A00006C0F50113861586148680E013C0F5016B
:1032B00083818823B1F3ED2DFE2D80E090E0D501D0
:1032C000A80FB91F13962C91219301968830910570
:1032D000B1F781E00F90DF91CF911F910F91FF9097
:1032E000EF90DF90CF90BF90AF900895DC0180E029
:1032F000615038F0ED91E827F0E0E858F84F8491FC
:10330000F7CF08950895FC0182E899E1928B818BB3
:10331000768365831482108289E0818381E08283D1
:1033200083830895CF93DF93EB0167E0CE01DEDF67
:1033300091E02F81821390E0892FDF91CF91089542
:10334000CF92DF92EF92FF920F931F93CF93DF9371
:103350001F921F92CDB7DEB76C01F42EE52EFC0153
:103360008581968169837A83E5DD69817A81882305
:10337000F1F0F60185819681CCDE40E06EEBF6013E
:10338000858196816ADE0F2D1E2D89E0F82EF601CB
:1033900085819681A3DEF80181938F01FA94B9F7B4
:1033A000F60185819681C6DD91E0813009F090E0DB
:1033B000892F0F900F90DF91CF911F910F91FF9068
:1033C000EF90DF90CF900895CF93DF93EA01B8DFBD
:1033D000882349F068E0CE0189DF91E028858213D7
:1033E00090E0892F01C080E0DF91CF910895EF92A6
:1033F000FF920F931F93CF93DF93EC018B017A0120
:103400008D819E8197DDB8018D819E8182DE40E0B5
:103410006EE48D819E8121DE40E0F70162818D8125
:103420009E811BDE40E0F70163818D819E8115DE68
:10343000F8018081803131F040E0F70164818D81B5
:103440009E810BDE8D819E8175DDB8018D819E810F
:1034500060DE488168E48D819E81FFDD64E170E07B
:1034600080E090E095D28881882329F06AE070E0BE
:1034700080E090E08DD28D819E81DF91CF911F9170
:103480000F91FF90EF9056CDEF92FF921F93CF9345
:10349000DF931F921F92CDB7DEB77C01FC018581BF
:1034A000968169837A8346DD69817A81F701858116
:1034B00096812FDE40E064EBF70185819681CDDDBA
:1034C000F70185819681A1DD182FF701858196810D
:1034D00031DD81E0111180E00F900F90DF91CF91ED
:1034E0001F91FF90EF900895EF92FF920F931F931B
:1034F000CF93DF93CDB7DEB72A970FB6F894DEBF30
:103500000FBECDBF7C018B01242FAE014F5F5F4FFB
:103510002A875ADF2A858823C9F0F8018081803103
:10352000B9F02B3041F02C3021F02A3031F48FE308
:1035300005C08FE703C08FE501C08FE18D83AE0129
:103540004F5F5F4FB801C70152DF02C080E001C08A
:1035500081E02A960FB6F894DEBF0FBECDBFDF9193
:10356000CF911F910F91FF90EF900895CF93DF932C
:10357000CDB7DEB729970FB6F894DEBF0FBECDBF2B
:10358000FB0120812031C9F0AE014F5F5F4F1CDF8E
:10359000882379F08D818F3351F020F48F3149F4F5
:1035A00089E00CC08F3539F08F3739F002C08AE0DE
:1035B00005C080E003C08BE001C08CE029960FB607
:1035C000F894DEBF0FBECDBFDF91CF910895EF928B
:1035D000FF920F931F93CF93DF93CDB7DEB7619721
:1035E0000FB6F894DEBF0FBECDBF8C01FC01858104
:1035F0009681B8DDF8011482FF24F394BE01665F62
:103600007F4FF80185819681E0DD8823A1F1BE011D
:10361000665F7F4FC80186DE882381F3F8018081D1
:10362000811107C0BE01665F7F4FC8012DDF811188
:103630001FC0AE014F5F5F4FBE01665F7F4FC80185
:103640007FDEF801E180BE01665F7F4FC8018EDF3B
:103650008E1518F4F801818105C0BE01665F7F4FA9
:10366000C80184DFF801818384818F5F8483C6CFA2
:10367000F801F082DECF61960FB6F894DEBF0FBE80
:10368000CDBFDF91CF911F910F91FF90EF900895E3
:10369000FC0162830895CF93DF93CDB7DEB72997FE
:1036A0000FB6F894DEBF0FBECDBFAE014F5F5F4FC8
:1036B00047DE81E09981911101C080E029960FB623
:1036C000F894DEBF0FBECDBFDF91CF9108958F92EA
:1036D0009F92AF92BF92CF92DF92EF92FF920F93A1
:1036E0001F93CF93DF93EC018A016950633048F454
:1036F000E62FF0E0EE0FFF1FE853FB4F8080918034
:1037000004C09EEE892E92E0992E01151105E9F074
:103710008B818823D1F08881811117C00AD16B0178
:103720007C01AA2497FCA094BA2CB801CE01B3DF87
:1037300081111DC0FED0681979098A099B096C1591
:103740007D058E059F0598F4F0CFB401882777FD9D
:103750008095982FDF91CF911F910F91FF90EF905F
:10376000DF90CF90BF90AF909F908F9011C1DF916D
:10377000CF911F910F91FF90EF90DF90CF90BF906E
:10378000AF909F908F900895CF93DF93EC018D8140
:103790009E81D0DB8D819E81E2DC488164E48D8155
:1037A0009E815BDC8A81882339F040E050E06981AA
:1037B000CE01DF91CF918BCFDF91CF910895FA01A8
:1037C000208148E0249F90011124818190E0982F6E
:1037D0008827990F990F990F282B392BDB018C9192
:1037E0008031C1F4678170E08681AB01481B5109CB
:1037F000CA019695982F8827979587950E945225FC
:1038000060517109207F53E0220F331F5A95E1F771
:10381000260F371FC9010895EF92FF920F931F9350
:10382000CF93DF93CDB7DEB729970FB6F894DEBFFD
:103830000FBECDBF8C017B01AE014F5F5F4FC4DD7A
:10384000882339F0AE014F5F5F4FB701C801B7DF82
:1038500002C080E894EE29960FB6F894DEBF0FBE42
:10386000CDBFDF91CF911F910F91FF90EF90089501
:10387000813824EE920764F0BC01882777FD80959B
:10388000982FF5D720E030E040E05CE30C94EB2487
:1038900060E070E08EEF92EC0895BEDFE9CF1F92FA
:1038A0000F920FB60F9211242F933F938F939F93F4
:1038B000AF93BF938091720A9091730AA091740A9A
:1038C000B091750A3091710A23E0230F2D3720F44F
:1038D0000196A11DB11D05C026E8230F0296A11D6A
:1038E000B11D2093710A8093720A9093730AA0937A
:1038F000740AB093750A8091760A9091770AA09124
:10390000780AB091790A0196A11DB11D8093760ABB
:103910009093770AA093780AB093790ABF91AF91F8
:103920009F918F913F912F910F900FBE0F901F90FD
:1039300018952FB7F8946091720A7091730A80916C
:10394000740A9091750A2FBF08953FB7F89480913B
:10395000760A9091770AA091780AB091790A26B5F3
:10396000A89B05C02F3F19F00196A11DB11D3FBFB7
:103970006627782F892F9A2F620F711D811D911D47
:1039800042E0660F771F881F991F4A95D1F7089567
:10399000CF92DF92EF92FF92CF93DF936B017C0186
:1039A000D4DFEB01C114D104E104F10479F05AD65B
:1039B000CCDF6C1B7D0B683E7340A0F381E0C81A1E
:1039C000D108E108F108C851DC4FECCFDF91CF916D
:1039D000FF90EF90DF90CF9008958230910538F0FE
:1039E000880F991F880F991F05970197F1F7089580
:1039F000789484B5826084BD84B5816084BD85B5CA
:103A0000826085BD85B5816085BDEEE6F0E0808190
:103A100081608083E1E8F0E01082808182608083B1
:103A2000808181608083E0E8F0E080818160808334
:103A3000E1EBF0E0808184608083E0EBF0E0808166
:103A400081608083E1E9F0E0808182608083808111
:103A500081608083E0E9F0E0808181608083E1EA39
:103A6000F0E0808182608083808181608083E0EAF1
:103A7000F0E0808181608083E1E2F1E0808182601A
:103A80008083808181608083E0E2F1E080818160D9
:103A90008083EAE7F0E080818460808380818260B7
:103AA00080838081816080838081806880831092A0
:103AB000C100089590E0FC013197E231F10508F072
:103AC0004CC0EE58FF4F0C948725809180008F7773
:103AD00003C0809180008F7D809380000895809145
:103AE0008000877FF9CF84B58F7702C084B58F7D42
:103AF00084BD08958091B0008F7703C08091B0009D
:103B00008F7D8093B0000895809190008F7707C0DB
:103B1000809190008F7D03C080919000877F80937B
:103B2000900008958091A0008F7707C08091A00039
:103B30008F7D03C08091A000877F8093A0000895AF
:103B4000809120018F7707C0809120018F7D03C075
:103B500080912001877F809320010895CF93DF9388
:103B600090E0FC01E254F74F2491FC01EC5FF64F2A
:103B70008491882349F190E0880F991FFC01E25855
:103B8000F64FA591B4918C59964FFC01C591D491F3
:103B90009FB7611108C0F8948C91209582238C9373
:103BA000888182230AC0623051F4F8948C91322FBC
:103BB000309583238C938881822B888304C0F8946A
:103BC0008C91822B8C939FBFDF91CF9108950F939F
:103BD0001F93CF93DF931F92CDB7DEB7282F30E02E
:103BE000F901E858F74F8491F901E254F74F149125
:103BF000F901EC5FF64F04910023C1F0882319F01E
:103C0000698358DF6981E02FF0E0EE0FFF1FEC5968
:103C1000F64FA591B4919FB7F8948C91611103C0B0
:103C20001095812301C0812B8C939FBF0F90DF9152
:103C3000CF911F910F910895CF93DF93282F30E0FC
:103C4000F901E858F74F8491F901E254F74FD49104
:103C5000F901EC5FF64FC491CC2389F081112ADF82
:103C6000EC2FF0E0EE0FFF1FE65BF64FA591B4914D
:103C70002C912D2381E090E021F480E002C080E0CF
:103C800090E0DF91CF910895FC01818D228D90E02D
:103C9000805C9F4F821B91098F7399270895FC01C7
:103CA000918D828D981731F0828DE80FF11D858DF1
:103CB00090E008958FEF9FEF0895FC01918D828D24
:103CC000981761F0828DDF01A80FB11D5D968C9170
:103CD000928D9F5F9F73928F90E008958FEF9FEF7B
:103CE000089581E190E2892B39F080E090E0892B02
:103CF00019F097D1811124C08CEB90E2892B39F017
:103D000080E090E0892B19F037D281111CC080E04F
:103D100090E0892B41F080E090E0892B21F00E9417
:103D20000000811113C080E090E0892BA1F080E0B9
:103D300090E0892B81F00E94000081110AC0089553
:103D40000E940000D9CF0E940000E1CF0E94000035
:103D5000EACF0C9400000895FC01848DDF01A80FC8
:103D6000B11DA35ABF4F2C91848D90E001968F73A3
:103D70009927848FA689B7892C93A089B1898C91C2
:103D800080648C93938D848D981306C00288F38988
:103D9000E02D80818F7D80830895CF93DF93EC01A8
:103DA000888D8823C1F0EA89FB89808185FD05C063
:103DB000A889B9898C9186FD0EC00FB607FCF5CF96
:103DC000808185FFF2CFA889B9898C9185FFEDCFDD
:103DD000CE01C2DFE8CFDF91CF910895CF92DF927D
:103DE000FF920F931F93CF93DF931F92CDB7DEB750
:103DF0006C0181E0D60158968C9358975B969C9104
:103E00005B975C968C915C97981307C05096ED91E8
:103E1000FC915197808185FD2DC0F601038D10E046
:103E20000F5F1F4F0F731127F02EF601848DF812CC
:103E300010C00FB607FCF9CFD6015096ED91FC915A
:103E40005197808185FFF1CFC601698385DF698144
:103E5000ECCF838DE80FF11DE35AFF4F6083D6014D
:103E60005B960C935B975296ED91FC9153978081F2
:103E700080620CC0D6015696ED91FC9157976083F5
:103E80005096ED91FC91519780818064808381E010
:103E900090E00F90DF91CF911F910F91FF90DF90F5
:103EA000CF900895BF92CF92DF92EF92FF92CF937F
:103EB000DF93EC016A017B01B22EE889F98982E087
:103EC0008083411581EE58076105710599F060E026
:103ED00079E08DE390E0A7019601F7D521503109F3
:103EE000410951095695479537952795211580E148
:103EF000380790F0E889F989108260E874E88EE16B
:103F000090E0A7019601E1D52150310941095109FD
:103F10005695479537952795EC85FD853083EE8539
:103F2000FF852083188EEC89FD89B082EA89FB89A0
:103F3000808180618083EA89FB89808188608083B9
:103F4000EA89FB89808180688083EA89FB89808196
:103F50008F7D8083DF91CF91FF90EF90DF90CF90A6
:103F6000BF9008951F920F920FB60F9211240BB6B7
:103F70000F922F938F939F93EF93FF93E0918A0A71
:103F8000F0918B0A8081E091900AF091910A82FD74
:103F900012C090818091930A8F5F8F732091940A51
:103FA000821751F0E091930AF0E0E658F54F958FB3
:103FB0008093930A01C08081FF91EF919F918F912F
:103FC0002F910F900BBE0F900FBE0F901F90189562
:103FD0001F920F920FB60F9211240BB60F922F93D0
:103FE0003F934F935F936F937F938F939F93AF9381
:103FF000BF93EF93FF938AE79AE0AEDEFF91EF91D4
:10400000BF91AF919F918F917F916F915F914F91F0
:104010003F912F910F900BBE0F900FBE0F901F90EE
:1040200018958AE79AE030DE21E0892B09F420E038
:10403000822F089510927D0A10927C0A88EE93E0F8
:10404000A0E0B0E080937E0A90937F0AA093800A5C
:10405000B093810A82ED94E090937B0A80937A0A70
:1040600085EC90E09093870A8093860A84EC90E038
:104070009093890A8093880A80EC90E090938B0A51
:1040800080938A0A81EC90E090938D0A80938C0A49
:1040900082EC90E090938F0A80938E0A86EC90E0F9
:1040A0009093910A8093900A1092930A1092940A26
:1040B0001092950A1092960A08951F920F920FB6C9
:1040C0000F9211240BB60F922F938F939F93EF9320
:1040D000FF93E091270BF091280B8081E0912D0B4D
:1040E000F0912E0B82FD12C090818091300B8F5F7A
:1040F0008F732091310B821751F0E091300BF0E07B
:10410000E95EF44F958F8093300B01C08081FF9161
:10411000EF919F918F912F910F900BBE0F900FBE3B
:104120000F901F9018951F920F920FB60F921124A7
:104130000BB60F922F933F934F935F936F937F93A1
:104140008F939F93AF93BF93EF93FF9387E19BE090
:1041500003DEFF91EF91BF91AF919F918F917F917E
:104160006F915F914F913F912F910F900BBE0F90E8
:104170000FBE0F901F90189587E19BE085DD21E031
:10418000892B09F420E0822F089510921A0B1092C7
:10419000190B88EE93E0A0E0B0E080931B0B9093A6
:1041A0001C0BA0931D0BB0931E0B82ED94E090931B
:1041B000180B8093170B8DEC90E09093240B809359
:1041C000230B8CEC90E09093260B8093250B88ECCE
:1041D00090E09093280B8093270B89EC90E09093CC
:1041E0002A0B8093290B8AEC90E090932C0B809300
:1041F0002B0B8EEC90E090932E0B80932D0B109256
:10420000300B1092310B1092320B1092330B089539
:104210000895EEDBFDDF0E94090FC1E7DEE10E9499
:10422000AB132097E1F35DDDFACFCF92DF92EF92EF
:10423000FF920F931F93CF93DF936C017A01EB01F1
:10424000E60EF71E00E010E0CE15DF0561F0699183
:10425000D601ED91FC910190F081E02DC6011995F8
:10426000080F191FF1CFC801DF91CF911F910F9156
:10427000FF90EF90DF90CF9008956115710581F068
:10428000DB010D900020E9F7AD0141505109461BBB
:10429000570BDC01ED91FC910280F381E02D199424
:1042A00080E090E00895EF92FF920F931F93CF93D9
:1042B000DF938C01FB01C0E0D0E064917F018FEFC0
:1042C000E81AF80A662361F0D801ED91FC9101909B
:1042D000F081E02DC8011995C80FD91FF701EDCF66
:1042E000CE01DF91CF911F910F91FF90EF90089534
:1042F000C4CFDC01ED91FC910190F081E02D199487
:104300006EED74E0BACF0F931F93CF93DF93EC0160
:10431000CADF8C01CE01F4DF800F911FDF91CF91B6
:104320001F910F9108950F931F93CF93DF93EC018B
:10433000A4DF8C01CE01E4DF800F911FDF91CF91CC
:104340001F910F9108958F929F92AF92BF92CF923B
:10435000DF92EF92FF920F931F93CF93DF93CDB72E
:10436000DEB7A1970FB6F894DEBF0FBECDBF7C01BC
:10437000C42EE52FCB01D22E19A221E02D1510F06D
:104380002AE0D22E8E010F5D1F4F8D2C912CA12C77
:10439000B12C6C2D7E2FA501940197D38C2DD29E2C
:1043A00080191124015011098A3014F4805D01C074
:1043B000895CF8018083211531054105510521F003
:1043C000C22EE32FCA01E5CFB801C70156DFA1967F
:1043D0000FB6F894DEBF0FBECDBFDF91CF911F9116
:1043E0000F91FF90EF90DF90CF90BF90AF909F9094
:1043F0008F900895CF92DF92EF92FF920F931F93C9
:10440000CF93DF93EC016A017B012115310579F42B
:10441000E881F9810190F081E02D642FDF91CF9147
:104420001F910F91FF90EF90DF90CF9019942A3059
:104430003105D9F477FF18C06DE25BDF8C014427AA
:104440005527BA014C195D096E097F092AE0CE0192
:104450007ADF800F911FDF91CF911F910F91FF9015
:10446000EF90DF90CF9008952AE0B701A601CE012A
:10447000DF91CF911F910F91FF90EF90DF90CF9040
:1044800062CF9A01AB01662757FD6095762FB2CFB8
:104490002115310541F4DC01ED91FC910190F08191
:1044A000E02D642F19944FCF9A01462F50E060E021
:1044B00070E0EECF4F925F926F927F928F929F92B9
:1044C000AF92BF92CF92DF92EF92FF920F931F9322
:1044D000CF93DF93EC016A017B01B22E9A01AB010D
:1044E000C701B601DBD2882319F061EE74E024C065
:1044F00026013701E89477F82FEF3FEF4FE75FE7AA
:10450000C301B201CBD281110CC02FEF3FEF4FE7B7
:104510005FE7C301B2010CD118161CF465EE74E01C
:104520000BC02FEF3FEF4FE75FE4C701B6014FD25B
:104530001816A4F469EE74E0CE01DF91CF911F91BB
:104540000F91FF90EF90DF90CF90BF90AF909F9032
:104550008F907F906F905F904F908FCE2FEF3FEFB7
:104560004FE75FECC701B601E3D087FDE3CF20E062
:1045700030E0A901C701B601DBD087FF09C06DE2B9
:10458000CE01B7DE8C01F7FAF094F7F8F09402C090
:1045900000E010E0A12C60E070E080E09FE3AB144D
:1045A00039F020E030E040E251E4C6D0A394F7CFE8
:1045B0009B01AC01C701B60157D06B017C0129D129
:1045C0002B013C0152D19B01AC01C701B6014BD07C
:1045D0006B017C012AE0B301A201CE01B4DE080F19
:1045E000191FBB2031F064E574E0CE0146DE080FF0
:1045F000191F7B2C772019F120E030E040E251E4D4
:10460000C701B601E8D16B017C01FED04B01AA24A1
:1046100097FCA094BA2C2AE030E0B501A401CE01A9
:10462000E9DE080F191FC501B40121D19B01AC01BE
:10463000C701B60118D06B017C017A94DBCFC801A9
:10464000DF91CF911F910F91FF90EF90DF90CF906E
:10465000BF90AF909F908F907F906F905F904F90A2
:10466000089528CF08955058BB27AA270ED075C1AA
:1046700066D130F06BD120F031F49F3F11F41EF47D
:104680005BC10EF4E095E7FB51C1E92F77D180F3D0
:10469000BA17620773078407950718F071F49EF53F
:1046A0008FC10EF4E0950B2EBA2FA02D0B01B9018E
:1046B00090010C01CA01A0011124FF27591B99F098
:1046C000593F50F4503E68F11A16F040A22F232FA4
:1046D000342F4427585FF3CF469537952795A795F4
:1046E000F0405395C9F77EF41F16BA0B620B730B9B
:1046F000840BBAF09150A1F0FF0FBB1F661F771F0C
:10470000881FC2F70EC0BA0F621F731F841F48F4C0
:10471000879577956795B795F7959E3F08F0B3CF46
:104720009395880F08F09927EE0F97958795089530
:10473000D9D008F481E008950CD00FC107D140F022
:10474000FED030F021F45F3F19F0F0C0511139C1B3
:10475000F3C014D198F39923C9F35523B1F3951BF2
:10476000550BBB27AA2762177307840738F09F5F92
:104770005F4F220F331F441FAA1FA9F333D00E2E01
:104780003AF0E0E830D091505040E695001CCAF76E
:1047900029D0FE2F27D0660F771F881FBB1F261733
:1047A00037074807AB07B0E809F0BB0B802DBF0106
:1047B000FF2793585F4F2AF09E3F510568F0B6C01F
:1047C00000C15F3FECF3983EDCF3869577956795E3
:1047D000B795F7959F5FC9F7880F911D96958795B7
:1047E00097F90895E1E0660F771F881FBB1F6217D6
:1047F00073078407BA0720F0621B730B840BBA0B94
:10480000EE1F88F7E095089504D06894B111D9C0DF
:104810000895BCD088F09F5790F0B92F9927B751D1
:10482000A0F0D1F0660F771F881F991F1AF0BA9574
:10483000C9F712C0B13081F0C3D0B1E00895C0C053
:10484000672F782F8827B85F39F0B93FCCF386956A
:1048500077956795B395D9F73EF4909580957095C7
:1048600061957F4F8F4F9F4F0895E89409C097FB44
:104870003EF490958095709561957F4F8F4F9F4F37
:104880009923A9F0F92F96E9BB279395F69587957B
:1048900077956795B795F111F8CFFAF4BB0F11F43E
:1048A00060FF1BC06F5F7F4F8F4F9F4F16C08823E5
:1048B00011F096E911C0772321F09EE8872F762F1B
:1048C00005C0662371F096E8862F70E060E02AF05C
:1048D0009A95660F771F881FDAF7880F9695879548
:1048E00097F90895990F0008550FAA0BE0E8FEEF1D
:1048F00016161706E807F907C0F012161306E407A4
:10490000F50798F0621B730B840B950B39F40A269C
:1049100061F0232B242B252B21F408950A2609F47A
:10492000A140A6958FEF811D811D089597F99F677E
:1049300080E870E060E008959FEF80EC0895002427
:104940000A941616170618060906089500240A94F4
:1049500012161306140605060895092E0394000C7A
:1049600011F4882352F0BB0F40F4BF2B11F460FF09
:1049700004C06F5F7F4F8F4F9F4F089557FD905832
:10498000440F551F59F05F3F71F04795880F97FB13
:10499000991F61F09F3F79F08795089512161306CD
:1049A0001406551FF2CF4695F1DF08C016161706FC
:1049B0001806991FF1CF8695710561050894089531
:1049C000E894BB2766277727CB0197F908958ADFFC
:1049D00008F48FEF08950BD0C0CFB1DF28F0B6DF19
:1049E00018F0952309F0A2CFA7CF1124EACFC6DF94
:1049F000A0F3959FD1F3950F50E0551F629FF001F2
:104A0000729FBB27F00DB11D639FAA27F00DB11D4A
:104A1000AA1F649F6627B00DA11D661F829F2227D3
:104A2000B00DA11D621F739FB00DA11D621F839F5A
:104A3000A00D611D221F749F3327A00D611D231F30
:104A4000849F600D211D822F762F6A2F11249F577E
:104A500050408AF0E1F088234AF0EE0FFF1FBB1FA1
:104A6000661F771F881F91505040A9F79E3F510540
:104A700070F05CCFA6CF5F3FECF3983EDCF38695F9
:104A800077956795B795F795E7959F5FC1F7FE2BEB
:104A9000880F911D9695879597F9089523DF880BC8
:104AA000990B089597FB072E16F4009406D077FD16
:104AB00008D037D007FC05D03EF4909581959F4FE4
:104AC0000895709561957F4F0895A1E21A2EAA1B53
:104AD000BB1BFD010DC0AA1FBB1FEE1FFF1FA217AE
:104AE000B307E407F50720F0A21BB30BE40BF50BAB
:104AF000661F771F881F991F1A9469F76095709534
:104B0000809590959B01AC01BD01CF010895EE0FFA
:104B1000FF1F0590F491E02D19940790F691E02D78
:104B20001994AA1BBB1B51E107C0AA1FBB1FA617E4
:104B3000B70710F0A61BB70B881F991F5A95A9F746
:104B400080959095BC01CD010895662777277AC09E
:104B5000FC0188279927E89421912032E9F3293034
:104B600010F02E30C8F32B3239F02D3231F4689426
:104B700003C060D0820F911D219120532A30C8F3C9
:104B80001EF4909581959F4F0895803209F0911100
:104B9000C1C180528F55E0F70895FB01DC018D9172
:104BA000019080190110D9F3990B0895FB01DC01E4
:104BB0004150504030F08D910190801919F400203F
:104BC000B9F7881B990B0895FB01DC014150504057
:104BD00048F001900D920020C9F701C01D9241508C
:104BE0005040E0F70895FA01A191B081009719F4BF
:104BF0001097E1F0CD01DC01CD010D90002011F402
:104C0000C00113C0FB012191222319F02015D9F70F
:104C1000F3CFFB012191201519F41E92119606C0C5
:104C20002223C1F70D900020A1F7D001FA01A19332
:104C3000B08308957AE0979F902D879F802D910DE6
:104C4000112408958F929F92AF92BF92CF92DF92DC
:104C5000EF92FF920F931F93CF93DF938B01611518
:104C6000710521F0DB018C9311969C93EC015E01A0
:104C7000BFEFAB1ABB0A7501C8808C2D90E04DD1F7
:104C8000892B11F0E501F3CFEDE2CE1208C07E01D1
:104C9000F2E0EF0EF11CC980DD24D39409C02BE2B1
:104CA000C21205C07E0142E0E40EF11CC980D12C85
:104CB000E701219743E050E060EA79E0CE0135D189
:104CC000892BB9F4239645E050E06BE979E0CE01F9
:104CD0002CD1892B09F425960115110519F0D8015D
:104CE000CD93DC93D11000C160E070E080E89FE7D5
:104CF00004C143E050E068E979E0CE0116D1892B88
:104D000059F40115110509F4F4C0B2E0EB0EF11CE1
:104D1000F801F182E082EDC0F70160E070E0CB01C4
:104D2000C0E0D0E07F01A0EDAA2EAC0C29E02A154E
:104D300028F14D2D4260B42E2D2D2870D2FE04C0D6
:104D4000211124C0219622C021112197A5E0B0E0B5
:104D50009B01AC0102D1660F771F881F991F6A0D56
:104D6000711D811D911D6839A9E97A078A07A9E19A
:104D70009A0760F0BD2DB660BB2E08C02EEFA212C0
:104D80000AC0D3FC50C04D2D4860B42E3196D701D7
:104D9000CC90DB2CC7CF2C2D2F7D253409F043C0C0
:104DA000A081AD3241F4BD2DB061DB2E7F0122E048
:104DB000E20EF11C0CC07F01AB3231F04FEFE41A70
:104DC000F40A21E030E006C0A2E0EA0EF11CA18165
:104DD00022E030E0A053AA3018F0E21AF30A23C010
:104DE000F70120E030E02038BCE03B075CF4A9018B
:104DF000440F551F440F551F240F351F220F331F1B
:104E00002A0F311DAF014F5F5F4F7A01A081A05380
:104E1000AA3010F4FA01E7CFD4FE03C031952195F2
:104E20003109C20FD31FD1FE09C00115110531F0A0
:104E3000E1E0EE1AF108D801ED92FC9216DD2D2D7D
:104E40002370233019F04B015C0106C04B015C015B
:104E5000B7FAB094B7F8B09420E030E0A901C501EA
:104E6000B40166DC882309F43CC0D7FF06C0D195A5
:104E7000C195D10907EB19E002C00FEC19E06801F8
:104E8000B8E1CB1AD10890E2E92EF12CCE15DF055E
:104E90006CF0F8012591359145915491C501B4010B
:104EA0009ADD4B015C01CE19DF09F0CF04501109E6
:104EB000F594E7940C151D0549F78A2D880F8B2D65
:104EC000881F8F3F41F020E030E0A901C501B40107
:104ED0002FDC811106C082E290E09093B50B8093A5
:104EE000B40BC501B40109C060E070E080E89FEF39
:104EF00004C060E070E080EC9FE7DF91CF911F91EC
:104F00000F91FF90EF90DF90CF90BF90AF909F9068
:104F10008F9008959927882708959111FBCF8032AB
:104F200019F089508550D0F70895FB01DC014150FC
:104F3000504088F08D9181341CF08B350CF4805EEC
:104F4000659161341CF06B350CF4605E861B611159
:104F500071F3990B0895881BFCCF09D0A59F900D84
:104F6000B49F900DA49F800D911D11240895A29FC0
:104F7000B001B39FC001A39F700D811D1124911D2D
:104F8000B29F700D811D1124911D0895F894FFCFDB
:104F9000D08AFFFF1700011900011B00011D00014D
:104FA0001F00012100012300012500012700012924
:104FB00000012B00012D00012F0001002802A50196
:104FC0000500002B00000081FF0000000000000031
:104FD000000000000128566C00050000870000005A
:104FE00081FF0000000000000000000000022875A2
:104FF0002E0205000005020000DC50000000000049
:1050000000000000000003289D09020500002402A2
:10501000000081FF0000000000000000000000040C
:10502000283E6C00050000E503000081FF00000041
:1050300000000000000000000528C3330105000047
:10504000A804000081FF0000000000000000000034
:105050000006280000050B0BCDB100000081FF0009
:10506000000000000000000000000728D49BB605E7
:1050700000006C00E10681FF00000000000000005D
:1050800000000008280E58010500001C008B068156
:10509000FF00000000000000000000000928667802
:1050A000B60500009102BD0081FF00000000000075
:1050B00000000000000A280098B60500003A022B04
:1050C0000181FF00000000000000000000000B282C
:1050D00002A5010500002BFF000081FF0000000079
:1050E000000000000000000C2802A5010500002BB4
:1050F000FF0000DC50000000000000000000000085
:105100000D2802A5010500002BFF000081FF000013
:105110000000000000000000004F4E004F46460017
:1051200068746E4973200068746E3F007271744930
:10513000732000202C00646562756749733E20006F
:10514000576861743F0068746E2000746874497316
:105150002000746D704973200063727449732000DD
:105160006C67744973200068725F30370020737475
:1051700061727465642E00727174007271743F0004
:10518000637274006372743F0068746E0068746EBA
:10519000663F00746874007468743F0074687466D5
:1051A0003F00746D703F00746D70663F006465620F
:1051B00075673F00554E5245434F474E495A454447
:1051C00000737763497320006C6774006C677478B0
:1051D000006C67743F0053657269616C31206F70B9
:1051E000656E65642E00746D7049730068746E4955
:1051F000730074687449730064656275674973006D
:10520000746D703F20006F62797661636B61370067
:1052100062616B6F6E006B6F746F6C0074687420EA
:1052200062797438200074687420627974372000C1
:10523000627974370062797438004C4F4E47434CA2
:1052400049434B00444F55424C45434C49434B0066
:10525000AA042404BA04B4045E00BC007701000070
:105260000000EE1E1521441E5D1E4F1ECD1E0D0AB0
:0E527000006E616E00696E66006F766600006B
:00000001FF
